:020000040800F2
:100000000050002095170008210400082304000870
:100010002504000827040008290400080000000047
:100020000000000000000000000000002B04000899
:100030002D040008000000002F040008310400080F
:10004000DD170008DD170008DD170008DD170008C0
:10005000DD170008DD170008DD170008DD170008B0
:10006000DD170008DD170008DD170008DD170008A0
:10007000DD170008DD170008DD170008DD17000890
:10008000DD170008DD170008DD170008DD17000880
:10009000DD170008DD170008DD170008DD17000870
:1000A000DD170008DD170008DD170008DD17000860
:1000B000DD170008DD170008DD170008DD17000850
:1000C000DD170008DD170008DD170008DD17000840
:1000D000DD170008DD170008DD170008DD17000830
:1000E000DD170008DD170008DD170008000000001C
:1000F0000000000000000000000000000000000000
:0C01000000000000000000005FF808F1A3
:10010C000348044B834202D0034B03B1184770479A
:10011C000C0000200C0000200000000005480649DF
:10012C000B1AD90F01EBA301491002D0034B03B1F9
:10013C00184770470C0000200C0000200000000045
:10014C0010B5064C237843B9FFF7DAFF044B13B113
:10015C000448AFF300800123237010BD0C00002075
:10016C0000000000E017000808B5044B1BB104495F
:10017C000448AFF30080BDE80840CFE70000000062
:10018C0010000020E017000870B50D4E0D4D761BC9
:10019C00B61006D0002455F8043B01349847A6420B
:1001AC00F9D1094E094D01F015FB761BB61006D09E
:1001BC00002455F8043B01349847A642F9D170BD90
:1001CC0038180008381800083C18000838180008BF
:1001DC00830730B548D0541E002A3FD00346CAB21C
:1001EC0001E0013C3AD303F8012B9D07F9D1032C14
:1001FC002DD9CDB245EA05250F2C45EA054536D952
:10020C00A4F1100222F00F0C03F1200EE6444FEA89
:10021C00121C03F1100242E9045542E90255103256
:10022C007245F8D10CF1010214F00C0F03EB021221
:10023C0004F00F0C13D0ACF1040323F003030433CC
:10024C00134442F8045B9342FBD10CF003042CB131
:10025C00CAB21C4403F8012B9C42FBD130BD64464E
:10026C001346002CF4D1F9E703461446BFE71A46AF
:10027C00A446E0E782B00A4B9A6942F020029A61E8
:10028C009A6902F020020092009A9A6942F00402E4
:10029C009A619B6903F004030193019B02B07047C0
:1002AC000010024072B6FEE700B585B00023019342
:1002BC00029303931648174A02604FF480728260CF
:1002CC00037303754FF46022C26143600223036120
:1002DC0000F084FBA8B9002301930122029203933E
:1002EC0001A90B4800F0F4F968B90123019302232A
:1002FC00029301A9064800F0EBF930B905B05DF89E
:10030C0004FBFFF7CFFFFFF7CDFFFFF7CBFF00BFDD
:10031C002C0000200024014008B50A480A4B036059
:10032C004FF4E133436000238360C36003610C220C
:10033C0042618361C36101F0F5F900B908BDFFF7B3
:10034C00B1FF00BF5C0000200038014000B595B043
:10035C00282200210DEB0200FFF73AFF0023059342
:10036C0006930793089309930193029303930493C1
:10037C0001220A924FF480330B930E9202221192B7
:10038C0012934FF4E01313930AA800F00BFCC8B9B6
:10039C000F23059302210691002307934FF48062EB
:1003AC000892099305A800F02FFE68B90223019367
:1003BC004FF40043039301A800F002FF30B915B0CD
:1003CC005DF804FBFFF76EFFFFF76CFFFFF76AFFAA
:1003DC0008B500F0ADFBFFF7B9FFFFF74BFFFFF7D8
:1003EC0063FFFFF799FF094C0021204600F070F9DC
:1003FC00204600F053FA6421204600F0A3F8204672
:10040C0000F062F9024B1880EDE700BF2C000020D1
:10041C0028000020FEE7FEE7FEE7FEE7FEE7704758
:10042C007047704708B500F095FB08BD82B00E4BC5
:10043C009A6942F001029A619A6902F001020092F3
:10044C00009ADA6942F08052DA61DB6903F080537A
:10045C000193019B054A536823F0E06343F08063EA
:10046C00536002B0704700BF001002400000014012
:10047C0000B587B00023029303930493059302689D
:10048C00104B9A4202D007B05DF804FB03F56C43A5
:10049C009A6942F400729A619A6902F400720092AD
:1004AC00009A9A6942F004029A619B6903F0040372
:1004BC000193019B03230293039302A9024800F0CA
:1004CC0077FFE0E7002401400008014010B586B03A
:1004DC00002302930393049305930268174B9A42EB
:1004EC0001D006B010BD03F558439A6942F480421E
:1004FC009A619A6902F480420092009A9A6942F0D9
:10050C0004029A619B6903F004030193019B4FF46D
:10051C00007302930223039303230593084C02A94F
:10052C00204600F045FF4FF48063029300230393B1
:10053C00049302A9204600F03BFFD2E700380140AB
:10054C0000080140F0B583B005460C46002301932A
:10055C0000F00CFB2B689A6812F4807F23D10746BD
:10056C005A6812F4807F03D1DB6A13F4700F29D020
:10057C00504B1E68022000F0AFFEB6FBF0F62B6865
:10058C0019694D4A114236D1D96802F15C421142C7
:10059C0031D11969494A114240D1DA68484B1A42A3
:1005AC003ED0292041E0AB6A43F02003AB6200232C
:1005BC0085F82430012003B0F0BD2B681B6813F0C4
:1005CC00020F0FD02B681B6813F0020F4FD1B4F140
:1005DC00FF3FF7D0002CF0D000F0C8FAC31BA342A9
:1005EC00F0D9EAE7AB6A43F00403AB62002385F869
:1005FC0024300320DFE71969304A114204D1D9684D
:10060C0002F16E4211420DD019692E4A0A405AB9B4
:10061C00DA682C4B13405BB1FC2006E0292004E087
:10062C00142002E0542000E0FC2000FB06F607E05A
:10063C005420FAE7019BB34210D3019B0133019381
:10064C00019BB34213D2B4F1FF3FF6D0002CF1D092
:10065C0000F08CFAC01BA042EFD9EBE7AB6A43F079
:10066C000403AB62002385F824300320A3E72B6836
:10067C006FF012021A60AB6A43F40073AB622B6822
:10068C009B6803F46023B3F5602F01D0002092E740
:10069C00287B60B9AB6A23F48073AB62AB6A13F44A
:1006AC00805F88D1AB6A43F00103AB6283E7002023
:1006BC0081E700BF080000202449922492244912AB
:1006CC0092244900499224000368D86C70470000BA
:1006DC0030B482B00022019290F82420012A00F05C
:1006EC0091800346012280F824204A68062A2DD8DE
:1006FC000468606B02EB8202053A4FF01F0C0CFA97
:10070C0002FC20EA0C000D6805FA02F20243626357
:10071C000A68092A3AD91C68E06802EB42021E3AC0
:10072C004FF0070C0CFA02FC20EA0C008D6805FA5D
:10073C0002F20243E2600A68103A012A36D900201C
:10074C00002283F8242002B030BC70470C2A0ED84B
:10075C000568286B02EB8202233A1F24944020EA9E
:10076C0004000C6804FA02F202432A63D0E705681D
:10077C00E86A02EB8202413A1F24944020EA04000A
:10078C000C6804FA02F20243EA62C1E71C682069B1
:10079C0002EB42024FF0070C0CFA02FC20EA0C00B0
:1007AC008D6805FA02F202432261C4E71A68164802
:1007BC00824205D09A6A42F020029A620120BFE779
:1007CC00906810F4000F1BD1906840F4000090600A
:1007DC000A68102A01D00020B2E70C4A12680C49B2
:1007EC00A1FB0212920C02EB82025200019202E077
:1007FC00019A013A0192019A002AF9D100209FE74F
:10080C0000209DE702209EE7002401400800002004
:10081C0083DE1B4330B583B00023019303689A68D1
:10082C0012F0010F33D104469A6842F001029A602B
:10083C00184B1B68184AA2FB03239B0C019302E084
:10084C00019B013B0193019B002BF9D100F08EF928
:10085C00054623689B6813F0010F16D100F086F94A
:10086C00431B022BF5D923689B6813F0010FF0D1C1
:10087C00A36A43F01003A362E36A43F00103E3624B
:10088C00002384F82430012002E0002000E0002046
:10089C0003B030BD0800002083DE1B4390F82430E9
:1008AC00012B68D010B50446012380F82430FFF7E3
:1008BC00B1FF00285BD1A36A23F4407323F001033A
:1008CC0043F48073A36223682C4A934227D0A26A14
:1008DC0022F48012A2625A6812F4806F05D0A26AC8
:1008EC0022F4405242F48052A262A26A12F4805F57
:1008FC002BD0E26A22F00602E262002284F8242065
:10090C006FF002021A6023689A6802F46022B2F552
:10091C00602F1DD09A6842F480129A602AE0A2F5EA
:10092C008062526812F4702FD1D0A26A42F4801205
:10093C00A262134A526812F4806FD6D0A26A22F4D3
:10094C00405242F48052A262CFE70022E262D4E726
:10095C000A4A934204D09A6842F4A0029A6009E0D1
:10096C00A2F58062526812F4702FD3D1F3E7002302
:10097C0084F8243010BD0220704700BF00280140CD
:10098C000024014038B503689A6812F0010F01D1B8
:10099C00002038BD04469A6822F001029A6000F0EB
:1009AC00E5F8054623689B6813F0010F13D000F09F
:1009BC00DDF8431B022BF5D923689B6813F0010F5C
:1009CC00F0D0A36A43F01003A362E36A43F001037F
:1009DC00E3620120DDE70020DBE7000000287BD08C
:1009EC0070B50446836A002B4DD02046FFF7CAFF32
:1009FC00A36A13F0100369D1002867D1A26A22F40C
:100A0C00885222F0020242F00202A2626268E1699C
:100A1C000A43217B42EA4102A568B5F5807F02D0EA
:100A2C00012D36D01D46267D012E35D026687168E5
:100A3C0021F46941294371602568AE68274931402A
:100A4C001143A960A168B1F5807F01D0012902D1C1
:100A5C002369013B1B052568E96A21F470010B43EE
:100A6C00EB62236899681E4B0B409A4225D0A36A0F
:100A7C0023F0120343F01003A362E36A43F0010373
:100A8C00E362012027E0C36280F82430FFF7F0FC1A
:100A9C00ABE74FF48075C6E731B9A169013945EA76
:100AAC00413141F40065C1E7A16A41F02001A16226
:100ABC00E16A41F00101E162B8E70023E362A36A55
:100ACC0023F0030343F00103A36204E0A36A43F0A1
:100ADC001003A362012070BD01207047FDF7E1FFF8
:100AEC00FE0E1FFF10B504460E4B18784FF47A73A8
:100AFC00B3FBF0F30C4A1068B0FBF3F000F0B4FD5C
:100B0C0068B90F2C01D901200AE0002221464FF0D0
:100B1C00FF3000F071FD054B1C60002000E001204F
:100B2C0010BD00BF000000200800002004000020C1
:100B3C0008B5074A136843F010031360032000F054
:100B4C0049FD0F20FFF7CEFFFFF770FC002008BD1A
:100B5C0000200240034A1168034B1B780B441360BE
:100B6C00704700BFA400002000000020014B186853
:100B7C00704700BFA400002082B0084B1B68084AD5
:100B8C00A2FB03235B0A00FB03F3019300BF019B51
:100B9C005A1E0192002BF9D102B0704708000020B8
:100BAC00D34D6210002800F0F18170B582B004467C
:100BBC00036813F0010F2CD0994B5B6803F00C0306
:100BCC00042B1DD0964B5B6803F00C03082B12D042
:100BDC006368B3F5803F41D0002B55D103F18043BE
:100BEC0003F504331A6822F480321A601A6822F46E
:100BFC0080221A6037E08A4B5B6813F4803FE7D0A1
:100C0C00874B1B6813F4003F03D06368002B00F084
:100C1C00BF81236813F0020F75D0814B5B6813F012
:100C2C000C0F5FD07E4B5B6803F00C03082B54D089
:100C3C002369002B00F08A807A4B01221A60FFF79F
:100C4C0095FF0546764B1B6813F0020F75D1FFF725
:100C5C008DFF401B0228F5D903209EE1704A1368D2
:100C6C0043F480331360636843B3FFF77FFF05469B
:100C7C006B4B1B6813F4003FCBD1FFF777FF401B86
:100C8C006428F5D9032088E1B3F5A02F09D0644B73
:100C9C001A6822F480321A601A6822F480221A60D0
:100CAC00E1E703F18043A3F53C331A6842F4802258
:100CBC001A601A6842F480321A60D4E7FFF756FFC4
:100CCC000546574B1B6813F4003FA2D0FFF74EFFAD
:100CDC00401B6428F5D903205FE1514B5B6813F48A
:100CEC00803FA5D14E4B1B6813F0020F03D0236934
:100CFC00012B40F04F814A4A136823F0F8036169D5
:100D0C0043EAC1031360236813F0080F33D0A369BF
:100D1C00002B5CD0434B0122C3F88024FFF726FF45
:100D2C0005463F4B5B6A13F0020F21D1FFF71EFF04
:100D3C00401B0228F5D903202FE1394A136823F010
:100D4C00F803616943EAC1031360DCE7354B002209
:100D5C001A60FFF70BFF0546314B1B6813F0020FAF
:100D6C00D1D0FFF703FF401B0228F5D9032014E173
:100D7C000120FFF701FF236813F0040F00F09680A9
:100D8C00274BDB6913F0805F34D1254BDA6942F0D5
:100D9C008052DA61DB6903F080530193019B0125DA
:100DAC00214B1B6813F4807F26D0E368012B3DD0C8
:100DBC00002B53D103F1804303F504331A6A22F05C
:100DCC0001021A621A6A22F004021A6233E0154B0D
:100DDC000022C3F88024FFF7C9FE0546104B5B6A5E
:100DEC0013F0020FC7D0FFF7C1FE401B0228F5D944
:100DFC000320D2E00025D3E70B4A136843F4807339
:100E0C001360FFF7B3FE0646074B1B6813F4807F95
:100E1C00CBD1FFF7ABFE801B6428F5D90320BCE0D7
:100E2C000010024000004242007000405F4A136A0A
:100E3C0043F001031362E36833B3FFF797FE0646F2
:100E4C005A4B1B6A13F0020F2FD1FFF78FFE801B3A
:100E5C0041F288339842F3D903209EE0052B09D048
:100E6C00524B1A6A22F001021A621A6A22F0040228
:100E7C001A62E0E74D4B1A6A42F004021A621A6ACF
:100E8C0042F001021A62D6E7FFF770FE0646474BA6
:100E9C001B6A13F0020F08D0FFF768FE801B41F2AB
:100EAC0088339842F3D9032077E0E5B9E369002B46
:100EBC0072D03E4A526802F00C02082A56D0022B1D
:100ECC0017D03B4B00221A66FFF750FE0446374BF7
:100EDC001B6813F0007F47D0FFF748FE001B022869
:100EEC00F5D9032059E0314AD36923F08053D361FB
:100EFC00DCE72F4B00221A66FFF738FE05462B4B1A
:100F0C001B6813F0007F06D0FFF730FE401B022851
:100F1C00F5D9032041E0236AB3F5803F1AD0234969
:100F2C004B6823F47413226A606A024313434B60C8
:100F3C001F4B01221A66FFF719FE04461B4B1B6858
:100F4C0013F0007F0ED1FFF711FE001B0228F5D91C
:100F5C00032022E0154A536823F40033A1680B43A5
:100F6C005360DCE7002018E0002016E0012B16D0BF
:100F7C000E4B5B6803F48031226A914211D103F469
:100F8C007013626A93420ED1002006E00120704774
:100F9C00012002E0012000E0002002B070BD012021
:100FAC00FBE70120F9E70120F7E700BF0010024042
:100FBC00000042420F4B5B6803F00C02082A01D080
:100FCC000D487047C3F383420C49885C13F4803F8F
:100FDC000BD0084B5B68C3F34043094AD35C064A09
:100FEC0002FB00F0B0FBF3F07047064B03FB00F084
:100FFC00704700BF0010024000127A00F81700087A
:10100C000818000800093D00002800F0A08070B509
:10101C000D460446524B1B6803F007038B420BD260
:10102C004F4A136823F007030B431360136803F054
:10103C0007038B4240F08D80236813F0020F17D00A
:10104C0013F0040F04D0474A536843F4E063536031
:10105C00236813F0080F04D0424A536843F46053DA
:10106C005360404A536823F0F003A1680B4353606C
:10107C00236813F0010F31D06368012B20D0022BB1
:10108C0025D0384A126812F0020F64D035494A68EC
:10109C0022F0030213434B60FFF768FD0646314B09
:1010AC005B6803F00C036268B3EB820F16D0FFF79A
:1010BC005DFD801B41F288339842F0D9032045E056
:1010CC00284A126812F4003FE0D101203EE0254A84
:1010DC00126812F0007FD9D1012037E0204B1B6839
:1010EC0003F00703AB420AD91D4A136823F0070328
:1010FC002B431360136803F00703AB422DD1236815
:10110C0013F0040F06D0174A536823F4E063E16828
:10111C000B435360236813F0080F07D0114A536830
:10112C0023F46053216943EAC1035360FFF742FF84
:10113C000C4B5B68C3F303130B4AD35CD8400B4BCB
:10114C0018600B4B1868FFF7CDFC002070BD012018
:10115C0070470120FAE70120F8E70120F6E700BF0D
:10116C000020024000100240201800080800002057
:10117C0004000020014B1868704700BF08000020D5
:10118C0008B5FFF7F7FF044B5B68C3F30223034A70
:10119C00D35CD84008BD00BF0010024030180008D6
:1011AC0008B5FFF7E7FF044B5B68C3F3C223034AA0
:1011BC00D35CD84008BD00BF0010024030180008B6
:1011CC0070B582B00446036813F0010F36D03F4B64
:1011DC00DB6913F0805F49D13C4BDA6942F08052F5
:1011EC00DA61DB6903F080530193019B0125384BD5
:1011FC001B6813F4807F3BD0344B1B6A13F4407391
:10120C0013D0626802F440729A420ED02F4A136ACD
:10121C0023F440702F490126C1F840640026C1F820
:10122C004064106213F0010F36D1284A136A23F47C
:10123C00407361680B431362002D3ED1236813F099
:10124C00020F06D0214A536823F44043A1680B4394
:10125C005360236813F0100F34D01C4A536823F4E6
:10126C008003E1680B43536000202CE00025BEE7AF
:10127C00174A136843F480731360FFF777FC064634
:10128C00134B1B6813F4807FB6D1FFF76FFC801BE8
:10129C006428F5D9032016E0FFF768FC06460B4BD3
:1012AC001B6A13F0020FC0D1FFF760FC801B41F2E8
:1012BC0088339842F3D9032005E0D36923F0805397
:1012CC00D361BBE7002002B070BD00BF001002402C
:1012DC00007000400000424208B502284ED0102891
:1012EC0003D0012828D0002008BD2B4B5A68186861
:1012FC0010F08070F8D0C2F383432849C85C12F414
:10130C00803F15D0244B5B68C3F34043244AD25C26
:10131C00244BB3FBF2F303FB00F01F4B5B6813F49D
:10132C00800FE1D14000204BA3FB00304008DBE7ED
:10133C001E4B03FB00F0F0E7174B1B6A40F2023226
:10134C001A40B2F5817F24D003F44073B3F5007FCB
:10135C0004D0B3F5407F09D00020C5E70E4A526A8D
:10136C0012F0020FF5D049F64040BDE70A4B186861
:10137C0010F40030B8D04FF22440B5E7FFF710FF5F
:10138C00054B5B68C3F3813301335B00B0FBF3F0B7
:10139C00AAE74FF40040A7E7001002400C18000821
:1013AC001C18000800127A00ABAAAAAA00093D007A
:1013BC0070B582B00024A446A6E0804DAA4210D09D
:1013CC0007D97F4DAA420CD005F58035AA4208D02A
:1013DC0013E0A5F58015AA4203D005F57025AA42A5
:1013EC0007D18A68002A58D0012A51D043610824B9
:1013FC0003E0A5F58015AA42F3D0BEF1FF0F4ED83D
:10140C000646BEF1FF0F4CD84FEA8C0233680F250D
:10141C00954023EA050304FA02F2134333604B6848
:10142C0013F0805F6ED0674B9A6942F001029A61AB
:10143C009B6903F001030193019B4FEA9C02951CED
:10144C00614B53F825600CF003039D000F23AB4058
:10145C0026EA03065D4B984229D003F58063984237
:10146C0000F08E8003F58063984200F08B8003F5CA
:10147C008063984219D004231AE0CC68BDE7CC688D
:10148C000434BAE7CC680834B7E7CC680C34B4E75A
:10149C0003610824B1E70024AFE70424ADE7061D7F
:1014AC00AFE7ACF108029200B0E7032300E00023A1
:1014BC00AB4033430232444D45F822304B6813F4B1
:1014CC00801F61D0424A936843EA0E0393604B68D5
:1014DC0013F4001F5ED03E4AD36843EA0E03D36078
:1014EC004B6813F4003F5BD0394A536843EA0E0350
:1014FC0053604B6813F4803F58D0354A136843EA65
:10150C000E0313600CF1010C0A6832FA0CF353D081
:10151C00012303FA0CF302EA030E33EA0202F1D1BF
:10152C004A68122A3FF649AF122A3FF666AF01A568
:10153C0055F822F0EF1300088714000891140008E6
:10154C00A314000807140008071400080714000867
:10155C0007140008071400080714000807140008F3
:10156C0007140008071400080714000807140008E3
:10157C0007140008071400088B14000897140008BF
:10158C00012395E7022393E7114A936823EA0E039C
:10159C0093609CE70E4AD36823EA0E03D3609FE75F
:1015AC000B4A536823EA0E035360A2E7084A1368F8
:1015BC0023EA0E031360A5E702B070BD00002210F1
:1015CC0000003110001002400000014000080140F2
:1015DC0000040140074AD36823F4E0631B041B0C8E
:1015EC00000200F4E060034343F0BF6343F40033B4
:1015FC00D360704700ED00E000B5194BDB68C3F316
:10160C000223C3F1070CBCF1040F28BF4FF0040CEC
:10161C0003F1040EBEF1060F18D9033B4FF0FF3E49
:10162C000EFA0CFC21EA0C0199400EFA03F322EAA3
:10163C000303194300280BDB0901C9B200F1604018
:10164C0000F5614080F800135DF804FB0023E5E72A
:10165C0000F00F000901C9B2024B1954F4E700BFA6
:10166C0000ED00E014ED00E00138B0F1807F0BD20A
:10167C004FF0E0235861054AF02182F82310002036
:10168C00986107221A6170470120704700ED00E055
:10169C0010B504460268136923F44053C1680B4328
:1016AC00136183680269134342691A430168CB686A
:1016BC0023F4B05323F00C031343CB60026853693B
:1016CC0023F4407381690B4353610268134B9A42B4
:1016DC0020D0FFF755FD024602EB820202EB82029C
:1016EC0063689B00B2FBF3F20D48A0FB0231490981
:1016FC00642303FB11231B013233A0FB03235B097F
:10170C0003F0F00202EB011203F00F032168134403
:10171C008B6010BDFFF744FD0246DDE70038014049
:10172C001F85EB5160B310B5044690F8413013B3EC
:10173C00242384F841302268D36823F40053D36007
:10174C002046FFF7A5FF2268136923F49043136129
:10175C002268536923F02A0353612268D36843F447
:10176C000053D36000206064202384F8413084F857
:10177C004230606310BD80F84030FEF7A7FED7E71B
:10178C000120704770470000FFF7FCFF0B480C4925
:10179C000C4A002302E0D458C4500433C4188C42C1
:1017AC00F9D3094A094C002301E013600432A24228
:1017BC00FBD3FEF7E9FCFEF70BFE704700000020A0
:1017CC000C000020401800080C000020A80000208D
:1017DC00FEE70000F8B500BFF8BC08BC9E46704799
:0C17EC00F8B500BFF8BC08BC9E46704772
:1017F80002030405060708090A0B0C0D0E0F10104A
:101808000102000002030405060708090A0B0C0D73
:101818000E0F101001020000000000000000000080
:10182800010203040607080900000000010203047E
:04183800750100082E
:04183C004D01000852
:0C184000010000001000000000127A00FF
:040000050800179543
:00000001FF
